:020000040000FA
:020000000F28C7
:10000800DE00030E8312AA000408AB000A08AC0045
:100018005F08AD00192810280230CA003B3083134E
:100028008400483034238301542A0B1CF129851A93
:100038001F28051EC528F7222108C3002008C20072
:100048004108A1004008A0001E30A200A301DE2242
:1000580043082102031D32284208200203185728AA
:100068004108A7004008A6000530DF000310A60DD0
:10007800A70DDF0B3A2827084302031D4528260849
:10008800420203185728C701C70AC6014008BE0024
:10009800851A5028AE0152288030AE00AF014108C1
:1000A8002E04BF00462A47080319462A4108A7001C
:1000B8004008A6000310A60DA70D43082702031D3C
:1000C800672842082602031881284108A70040082B
:1000D800A6000310A60DA70D0310A60DA70D27084F
:1000E8004302031D79282608420203188128173085
:1000F80046020318462AC60A462A4308A7004208A9
:10010800A6000310A60DA70D41082702031D8E287F
:10011800400826020318C2284308A7004208A60080
:100128000310A60DA70D0310A60DA70D2708410261
:10013800031DA028260840020318C22808304602DA
:100148000318AC284608013E84001823BD047F2804
:10015800103046020318B72846080739013E8400C4
:100168001823BC047F28173046020318462A46087D
:100178000739013E84001823BB047F28C701C60144
:10018800462AF7222108C1002008C0001730460679
:10019800031DDC2940303D024308A7004208A600A1
:1001A8000318EF280310A60DA70D27084102031D09
:1001B800DF282608400203180C294108A700400838
:1001C800A6000310A60DA70D27084302031D0A2940
:1001D800260842020A290310A60DA70D4108270286
:1001E800031DF8284008260203180C294308A70015
:1001F8004208A6000310A60DA70D0310A60DA70D13
:1002080027084102031D0A2926084002031CBD17BE
:10021800C5013D08B0000F30B005B501B601831225
:100228003508043E262383123F06031D68293E082D
:10023800013EA600003003180130A7003508033E30
:1002480026238312A8002708803A803C031D2E2904
:10025800260828020318682983123508033E262336
:100268008312A6003E08FF3EA700FF3003180030A7
:10027800A800803AA90080302902031D45292608D4
:1002880027020318682983123508023E26238312A1
:100298003D06031D68293508013E262383123C06C6
:1002A800031D68293508262383123B06031D5F2991
:1002B800C501C50A7829350826230F398312300667
:1002C800031D68290230C50005308312B5070318DD
:1002D800B60A3608803ADF0080305F02031D7629AF
:1002E8007C303502031C13298312851CA629450876
:1002F8000319DA29C60A3D0E0F39C4004908031D3F
:100308009D294408070603199A29070803199A29F9
:1003180087010B30A8002630A7005D30A600A60B89
:100328009329A70B9329A80B93299A298312440888
:10033800A42945080319DC2949080319DC294A08B6
:100348008706DC294508031DD72978304802031899
:10035800D029B301B401831233083B3E84008313D0
:100368000008A0004808C2228312C80AB30A031969
:10037800B40A3408803ADF0080305F02031DC629C2
:10038800053033028312031CB0294808A0007E30D0
:10039800C22201309022DC29033090227E30831261
:1003A800A001C222DC29023090228312C701C601B3
:1003B800183083124606031D462A02304906031DDB
:1003C800E7294408EF2945080319462A0330490656
:1003D800031D462A4A088700462A8B1C3E2A8701A5
:1003E8000D30A800AF30A700B630A600A60BFA293A
:1003F800A70BFA29A80BFA2900008312051D0E2A5B
:10040800C90A4908A0000330A0057F30C222831220
:1004180049083B2A0B1405140D30A800AF30A7007B
:10042800B630A600A60B162AA70B162AA80B162A62
:1004380000008312B201051D292A48080319292A38
:100448004808FB3EB20002302A2A0330B10083126A
:10045800480832020318352AA001C8034808C222F6
:100468002B2A3208A0007E30C22283123108902243
:100478008B10462A0C1C462A90018E018F01C70159
:10048800C6010C100B108B1783122D08DF002C08E7
:100498008A002B0884002A0E8300DE0E5E0E0900F7
:1004A800850187013630831685008701063095005F
:1004B8003030960098308B0001308C0081017F30FD
:1004C80009238312C9007E3009238312C800070854
:1004D80003196B2A02304902031C812A8230B900B1
:1004E800DD30B800B80B762AB90B762A7B2AFF30A4
:1004F8008312CA060330CA058D2A6630BA007630E0
:10050800B900C130B800B80B872AB90B872ABA0BD3
:10051800872A831287016B2A8312A300A401A501ED
:100528002508803AA00080302002031D9D2A230858
:10053800240203180800831205140230A2000430B4
:10054800A100BA30A000A00BA72AA10BA72AA20BD2
:10055800A72A0000831205100230A2000430A1006F
:10056800BA30A000A00BB62AA10BB62AA20BB62A55
:1005780000008312A40A0319A50A942AA10083166D
:100588009C18C32A8312210883169B008312200813
:1005980083169A003F309C0503108B1B03148B13A2
:1005A8001C1555309D00AA309D009C141C11031881
:1005B8008B170800A401A501201CE82A2208A4071B
:1005C8000318A50A2308A5070310A20DA30D0310FD
:1005D800A10CA00C20082104031DE02A2508A10075
:1005E8002408A000080090010308A4000F08A30035
:1005F8000E08A2008E018F0124088300313090007C
:100608002308A1002208A00008008312B700640094
:1006180083169C180B2B8312370883169B003F30D8
:100628009C051C141A08080003308A000408840A70
:10063800820700340134023404340834103420347E
:1006480040348034A000640083169C18272B831242
:10065800200883169B003F309C051C141A080800CC
:1006680064008001840A0406031900340406352B4B
:02400E0094FF1D
:00000001FF
